{
  blockHash: '0x7696653d7f39e54542b7e74b9ff9fc2fa3e877a036f6de5a7cd971e73248d63e',
  blockNumber: 25577442,
  chainId: '0x2a',
  condition: null,
  creates: null,
  from: '0xa430DCf42247F2d3b0af1553f5CC7ca309A70580',
  gas: 161010,
  gasPrice: '6000000000',
  hash: '0x28f6b8f78b285421c272898ab188fb14f537e2cc43f11a6ce699555491b8bf7a',
  input: '0x414bf389000000000000000000000000d0a1e359811322d97991e03f863a0c30c2cf029c000000000000000000000000aff4481d10270f50f203e0763e2597776068cbc50000000000000000000000000000000000000000000000000000000000002710000000000000000000000000a430dcf42247f2d3b0af1553f5cc7ca309a705800000000000000000000000000000000000000000000000000000000060cdc0d000000000000000000000000000000000000000000000000000038d7ea4c680000000000000000000000000000000000000000000000000005bf1d7cd53885b5d0000000000000000000000000000000000000000000000000000000000000000',
  nonce: 7,
  publicKey: '0xcc27e3ba8b86145e998580f6419407074a53fc7e500cec25e26fb6d576aa218f048bd7edcbf0fe4fd389f92da79028b4c8a1cfc3e28a680960bae93acddd218a',
  r: '0xb56c85a7e8243eb25385510830fabbe0b3ecaccd335d4279a199546bbc39929',
  raw: '0xf9017207850165a0bc00830274f294e592427a0aece92de3edee1f18e0157c0586156487038d7ea4c68000b90104414bf389000000000000000000000000d0a1e359811322d97991e03f863a0c30c2cf029c000000000000000000000000aff4481d10270f50f203e0763e2597776068cbc50000000000000000000000000000000000000000000000000000000000002710000000000000000000000000a430dcf42247f2d3b0af1553f5cc7ca309a705800000000000000000000000000000000000000000000000000000000060cdc0d000000000000000000000000000000000000000000000000000038d7ea4c680000000000000000000000000000000000000000000000000005bf1d7cd53885b5d000000000000000000000000000000000000000000000000000000000000000077a00b56c85a7e8243eb25385510830fabbe0b3ecaccd335d4279a199546bbc39929a07bc0db4b3f34abed1b14b6bb33ab7e7667ded93063cceed09c1c67824d4f6769',
  s: '0x7bc0db4b3f34abed1b14b6bb33ab7e7667ded93063cceed09c1c67824d4f6769',
  standardV: '0x0',
  to: '0xE592427A0AEce92De3Edee1F18E0157C05861564',
  transactionIndex: 3,
  v: '0x77',
  value: '1000000000000000'
}

https://kovan.etherscan.io/tx/0x28f6b8f78b285421c272898ab188fb14f537e2cc43f11a6ce699555491b8bf7a


----- telegram id -------------------------
1890759986



----- test wallet address -------------------

0xa430DCf42247F2d3b0af1553f5CC7ca309A70580
f5321cb1dbfa2382fb2dca34723f4b73e66fe9e6b061dbaca33cf851c1c55a83

0x73BB63d20c665E0fE243C92FD69D7e595909bbd6
1cd75389135b78b9db1b9202c6fa933a25e74d6070208e07af7185f5daa6e781


0x211d4cc5805b6FAC8a9e4eD760Ae6f9e71E00D0C
57c08a60eb90d469bcbfad98f8ca3e621f2dcceda18b4afa14601af494f61f31





-----  v3 router ----------------------------

0x414bf389  :  method
000000000000000000000000d0a1e359811322d97991e03f863a0c30c2cf029c  : tokenIn
000000000000000000000000482dc9bb08111cb875109b075a40881e48ae02cd  : tokenOut
0000000000000000000000000000000000000000000000000000000000002710  : 
00000000000000000000000073bb63d20c665e0fe243c92fd69d7e595909bbd6  : from address
0000000000000000000000000000000000000000000000000000000060d05f18  : deadline
000000000000000000000000000000000000000000000000002386f26fc10000  : in amount
0000000000000000000000000000000000000000000000054e01f2cea86ea5f5  : out amount
0000000000000000000000000000000000000000000000000000000000000000


----------      V2 router  --------------------------
0x38ed1739
000000000000000000000000000000000000000000000000016345785d8a0000    // amount in      0
00000000000000000000000000000000000000000000000384f5ceca351bc000    // amount out     1
00000000000000000000000000000000000000000000000000000000000000a0                      2
00000000000000000000000073bb63d20c665e0fe243c92fd69d7e595909bbd6     // from address  3
0000000000000000000000000000000000000000000000000000000060d13b1a     // deadline      4
0000000000000000000000000000000000000000000000000000000000000002                      5
000000000000000000000000d0a1e359811322d97991e03f863a0c30c2cf029c     // in token      6
000000000000000000000000aff4481d10270f50f203e0763e2597776068cbc5    //  out token     7



https://kovan.etherscan.io/tx/0xb83ec804b595a9db21fb1c4de4117b1f3d86baa4fc9c84eb743271f4a34c23c0
Function: swapExactTokensForETH(uint256 amountIn, uint256 amountOutMin, address[] path, address to, uint256 deadline)
MethodID: 0x18cbafe5
[0]:  00000000000000000000000000000000000000000000000061584d8a8b5e8fe7
[1]:  000000000000000000000000000000000000000000000000002323a99ca3a9e6
[2]:  00000000000000000000000000000000000000000000000000000000000000a0
[3]:  00000000000000000000000073bb63d20c665e0fe243c92fd69d7e595909bbd6
[4]:  0000000000000000000000000000000000000000000000000000000060d9811c
[5]:  0000000000000000000000000000000000000000000000000000000000000002
[6]:  000000000000000000000000aff4481d10270f50f203e0763e2597776068cbc5
[7]:  000000000000000000000000d0a1e359811322d97991e03f863a0c30c2cf029c


https://kovan.etherscan.io/tx/0xf1d82b137c2ba6a0808133d78e65bd66a9df8f79ff9f4f35eeb89708d4c94d58
Function: swapExactETHForTokens(uint256 amountOutMin, address[] path, address to, uint256 deadline)

MethodID: 0x7ff36ab5
[0]:  00000000000000000000000000000000000000000000000060dc523ffc077c14  // 	amountOutMin
[1]:  0000000000000000000000000000000000000000000000000000000000000080
[2]:  00000000000000000000000073bb63d20c665e0fe243c92fd69d7e595909bbd6  // from address
[3]:  0000000000000000000000000000000000000000000000000000000060d97ee8
[4]:  0000000000000000000000000000000000000000000000000000000000000002
[5]:  000000000000000000000000d0a1e359811322d97991e03f863a0c30c2cf029c  // in token
[6]:  000000000000000000000000aff4481d10270f50f203e0763e2597776068cbc5  // out token



6665909247657092000
6798986556896018248


---------BSC router ------------------------
swapExactETHForTokens

0x7ff36ab5
000000000000000000000000000000000000000000000198f6793d797e1d78eb     // amount out  // amount of Token
0000000000000000000000000000000000000000000000000000000000000080
0000000000000000000000006b875f79461969751a8a386cdb13e96a9641e335      // from address
0000000000000000000000000000000000000000000000000000000060d14270     // dead line
0000000000000000000000000000000000000000000000000000000000000002
000000000000000000000000bb4cdb9cbd36b01bd1cbaebf2de08d9173bc095c   // in token
0000000000000000000000008087e4c1735c1373f0d04b88d4dbe1fae1149123   // out token

swapExactETHForTokensForFee

MethodID: 0xb6f9de95
0000000000000000000000000000000000000000000000000014efc4977dba4c
0000000000000000000000000000000000000000000000000000000000000080
000000000000000000000000b1fd36c0011d798f0d2b510f2a2de063ba084d61
0000000000000000000000000000000000000000000000000000000060e3d363
0000000000000000000000000000000000000000000000000000000000000002
000000000000000000000000bb4cdb9cbd36b01bd1cbaebf2de08d9173bc095c
0000000000000000000000005baebd214fdae546ce39750b8363e799e2aba21e


Function: swapETHForExactTokens(uint256 amountOut, address[] path, address to, uint256 deadline)

MethodID: 0xfb3bdb41
[0]:  00000000000000000000000000000000000000000000000000a786c4d1aa7200
[1]:  0000000000000000000000000000000000000000000000000000000000000080
[2]:  00000000000000000000000046a9e5cf275a0a5d691dab5e69c905477e00dbfd
[3]:  0000000000000000000000000000000000000000000000000000000060e62529
[4]:  0000000000000000000000000000000000000000000000000000000000000002
[5]:  000000000000000000000000bb4cdb9cbd36b01bd1cbaebf2de08d9173bc095c
[6]:  000000000000000000000000fddcb5ddd107799c91ad0db2d22baf184a85b717



Test Token list: (kovan)

XeenusToken 0x022E292b44B5a146F2e8ee36Ff44D3dd863C915c
WeenusToken 0xaFF4481D10270F50f203E0763e2597776068CBc5
YeenusToken 0xc6fDe3FD2Cc2b173aEC24cc3f267cb3Cd78a26B7
ZeenusToken 0x1f9061B953bBa0E36BF50F21876132DcF276fC6e

0x5baebd214fdae546ce39750b8363e799e2aba21e Moonery : bsc

0xb1fd36C0011d798f0d2b510f2A2dE063bA084D61


bsc
0xfddcb5ddd107799c91ad0db2d22baf184a85b717 (token whal...)